:400000000080002011000000AD000000AD00000080B500AF034B044A12681A6000F004FB00F048F8BC760040FA46004010B5054C237833B9044B13B10448AFF300800123EE
:40004000237010BD2881FF1F000000002C3A000008B5064B1BB106480649AFF300800648036813B1054B03B1984708BD000000002C3A00002C81FF1F0881FF1F000000005D
:4000800080B500AF01F060F80346002B06D0064B1B78DBB203F0C003402B02D1024B40221A7000F06BFAFEE7FA46004080B400AFFEE700BF80B586B000AF224B7B61224B1A
:4000C0003B61204B7B6135E03B691B68FB603B695B68BB603B699B683B6000237B600CE0FB681A68BB681A60BB680433BB60FB680433FB607B6804337B607A683B689A4296
:40010000EED13B69DB683B6000237B6008E0BB6800221A60BB680433BB607B6804337B607A683B689A42F2D13B6910333B617B69013B7B617B69002BC6D103F03BFCFFF706
:400140009FFFFEE701000000603C000080B582B000AF174B174A1A60174B174A126842F400721A6000237B600FE07B68032B04D8124B7A6853F8223000E0114B114A79687F
:4001800042F821307B6801337B607B682F2BECD90D4B1B78DAB20D4B1A700D4B094A1A6000F014F90B4B00221A600837BD4680BD0CED00E00004FA0514ED00E00000000017
:4001C000AD0000000080FF1FBC7600400481FF1F08ED00E00081FF1F80B582B000AF78603960786800213A6803F013FC0837BD4680BD00BF80B584B000AFF860B9607A605E
:40020000F868B9687A6803F0FBFB1037BD4680BD80B584B000AFF860B9607A60F868B9687A6803F0EDFB1037BD4680BD80B483B000AF0346FB71FEE780B487B000AF786021
:40024000396000233B6100237B6126E07B699B007A6813441B68BB60BB68FB73BB6823F0FF03BB6013E03B695B003A6813441B781A46BB6813443A69520039680A445278E1
:400280001A703B6901333B61FB7B013BFB73FB7B002BE8D17B6901337B617B690B2BD5D91C37BD465DF8047B704700BF80B582B000AF294B06221A70284B52221A70284B4A
:4002C000284A1278D2B21A70274B4FF4E1621A80264B41F251221A800023FB7019237B6014E0FB785B00DAB2214B1B78DBB203F00103DBB21343DBB203F00303FB704FF424
:40030000F07000F031FF7B68013B7B607B68002B02D0FB78032BE4D17B68002B02D10320FFF784FF134B4FF480721A80114B07221A70114B00221A70104B48221A700D4BA5
:4003400000221A700E4B00221A700E4B02221A700837BD4680BD00BF0043004000420040A14600400F01004922420040204200402542004004400040064000400840004083
:40038000094000400140004080B483B000AF0B4B1B78FB710A4BFA7902F00702D2B21A70084BFA791209D2B21A70074B44221A700C37BD465DF8047B704700BFCF0100491D
:4003C0006E5800406F5800407658004080B582B000AF72B6344B344A1278D2B242F00402D2B21A700023FB7113E0FA7913465B0013445B002D4A13443B603B681A683B68C7
:400400009B889BB210461946FFF7E6FEFB790133FB71FB79072BE8D925482649FFF70CFF254B254A1278D2B242F00202D2B21A70224B224A1278D2B242F00202D2B21A7009
:400440001F4B1F4A1278D2B242F04002D2B21A701C4B1C4A1278D2B242F01002D2B21A7019481A490A22FFF7D3FE194819490A22FFF7CEFE184B184A1278D2B242F0080275
:40048000D2B21A70154B01221A70FFF70FFF134B81221A70FFF778FF114809490E22FFF7A9FE0837BD4680BDE8460040303A0000603A0000903A00000350014013500140BA
:4004C000A0430040C2430040F0510040C03A000040510040CC3A00002243004000480040B043004080B485B000AF78600B467B800023FB810BE07B88013B7A6813441B7811
:400500001A46FB891344FB817B88013B7B807B88002BF0D1FB895B429BB218461437BD465DF8047B704700BF80B586B000AFF860B9607A600023FB75FA680F4B9A4206D011
:40054000FB68002B03D0002000F09AFF0CE00BE07B68013B7B60FA68BB681A447B6813441A78FB7D1344FB757B68002BF0D1FB7D18461837BD4680BD0080004080B582B057
:4005800000AF06237B60002000F06EF80346002B01D100237B601C4B1B681B68002000211A46FFF7C1FF0346FB70184B1B681B78FA78D31AFB70FB785B42FB70134B1B68B7
:4005C0001B78FA789A4204D10F4B1B681B68002B02D1002000F054FF0D4B1B78DBB203F0C003402B02D07B68002B05D0084B00221A70002000F0AEF8142000F0ABF800F0CA
:4006000009F80837BD4680BD1081FF1F0C81FF1FFA46004080B500AF024B80221A7000F03BFF80BDFA46004080B500AF0C4B1B78DBB203F0C003802B11D1094B00221A707E
:400640000220002100F0DCFB0346002B07D00220002100F0D5FB0346184600F003F880BDFA460040004700BF90B587B000AF0346FB71FB790320194600F0C2FB03460133CD
:400680001C02FB790420194600F0BAFB03462344FB600023FB740023BB74FB790320194600F0AEFB034601331B027B6111E07B691B78FB72FB7A002B04D0FB7AFF2B01D0D3
:4006C0000123FB74BA7CFB7A1344BB747B6901337B617A69FB689A42E9D3FB790320194600F08EFB034601331B02DB087B61FA68174B9A4202D0FB68DB0801E04FF400437D
:40070000FB600AE07B6903F190431B78DAB2BB7C1344BB747B6901337B617A69FB689A42F0D3BB7C5B42BB74BC7CFB790120194600F066FB03469C4202D1FB7C002B01D126
:40074000062300E0002318461C37BD4690BD00BFC0FF030080B5ADF5247D00AF0246FB1D1A700023A7F88A320023A7F888320A2387F88732002387F8863200F07FFD03464C
:40078000002B02D0002000F07BFE00F01BFC62B6002387F88D32FB1D1B78002B02D0FB1D1B7800E0FF2307F59E7107F26A2208464FF4967100F052FCC7F87802FB1D1B7894
:4007C000002B04D097F88732013B87F8873297F88732002B03D0D7F87832002BDBD1D7F87832002B00D0B0E2B7F86A32062B04D907F59E731B78012B03D0042387F88D3245
:4008000044E007F59E73DB781B029AB207F59E739B781343A7F88A32B7F88A32053307F59E72D35C1B029AB2B7F88A32043307F59E71CB5C1343A7F87632B7F88A32DA1DE0
:40084000B7F86A329A4203D9032387F88D321DE0B7F88A32063307F59E72D35C172B03D0042387F88D3211E0B7F88A3204339BB207F59E7210461946FFF734FE0346B7F8FA
:4008800076229A4202D0082387F88D320023A7F88E3297F88D32002B40F04C8207F59E731B7987F87532042387F88D3207F59E735B78313B0A2B00F2398201A252F823F036
:4008C000ED080000270900002D0D0000C1090000330B00002D0D0000450B00009B0B0000C1090000DF0B0000150D000097F88632012B17D1B7F88A32002B13D10020FFF7A0
:40090000B3FE0346002B14BF00230123DBB21A4607F59E731A710123A7F88E32002387F88D3207E206E297F88632012B47D1B7F88A32012B43D197F87532032B3FD8D14B71
:400940001B681B681B0C87F8743297F8752297F874329A4208D1CB4B1B681B681B0A9BB2DBB2A7F884320DE097F8752297F874329A4203D90023A7F8843203E04FF4807314
:40098000A7F88432B7F88432DAB207F59E731A71B7F884321B0A9BB2DAB207F59E735A7107F59E73FF229A7107F59E730022DA710423A7F88E32002387F88D32BAE1B9E14F
:4009C00007F59E735B78342B23D197F88632012B40F0B081B7F88A32032B40F0AB8197F875323F2B08D997F875325BB2002B03DB1023A7F8883203E04FF49073A7F8883220
:400A0000B7F8883207F11002104600211A4603F000F897F88632012B40F08A80B7F88A32022B40F28580B7F8883207F11002D118B7F88A32033B07F59E7207320846114616
:400A40001A4602F0DDFFB7F88822B7F88A3213449BB2033BA7F8883297F875323F2B0AD997F875325BB2002B05DB00F0C3FC1023A7F88A3203E04FF49073A7F88A32B7F808
:400A80008822B7F88A329A424BD107F59E739B791B029AB207F59E735B791343A7F8883297F875323F2B27D897F875329BB21B029AB2B7F888321344A7F87232714B1B6842
:400AC0001B681B0AA7F882326E4B1B681B68DBB2002B04D0B7F882320133A7F88232B7F87222B7F882329A4206D20A2387F88D320023A7F888321DE197F87502B7F8881238
:400B000007F11002B7F88A3200F0CAFB0346002B01D00A2300E0002387F88D3200F000FD02E0032387F88D320023A7F8883201E100E197F88632012B03D10023A7F88832A3
:400B400003E1F7E097F88632012B25D1B7F88822B7F88A321344B3F5967F19D8002387F88D32B7F8883207F11002D118B7F88A3207F59E720432084611461A4602F040FFE8
:400B8000B7F88822B7F88A321344A7F8883203E0032387F88D32CDE0CCE0B7F88A32002B1CD107F10803384A92E8030083E80300012387F886320823A7F88E32B7F88E32DA
:400BC00007F59E72111D07F10802084611461A4602F016FF002387F88D32ABE0AAE097F88632012B40F09580B7F88A32032B40F0908007F59E739B791B029AB207F59E730F
:400C00005B791343A7F8703297F875323F2B13D997F875325BB2002B0EDBB7F870321B01C7F86C321948D7F86C121022FFF77CFC034687F8813212E097F875321A02B7F8E0
:400C4000703213441B02C7F86C320020D7F86C124FF48072FFF768FC034687F8813297F875323F2B29D897F8753203F510331A02B7F8703213445B01C7F86C320023A7F839
:400C80007E3216E01081FF1FD83A000000800040B7F87E22D7F86C3213441B78DAB297F88132134487F88132B7F87E320133A7F87E32B7F87E321F2BEAD997F87532032B5E
:400CC00019D1B7F87032FF2B15D10520002100F097F80346DBB297F88122D31A87F881320620002100F08CF80346DBB297F88122D31A87F8813297F881325B42DAB207F574
:400D00009E731A71002387F88D320123A7F88E3210E00FE00020FFF7A7FC0346002B02D1114B80221A7000F0B7FB03E0052387F88D3200BF97F88D1207F59E72B7F88E3279
:400D4000084611461A4600F011F8FB1D1B78002B3FF41EAD97F88632012B3FF419AD07F52477BD4680BD00BFFA46004080B584B000AF396013460246FA71BB803B68012261
:400D80001A703B680133FA791A703B680233BA88D2B21A703B680333BA88120A92B2D2B21A70BB8804339BB238681946FFF79AFB0346FB81BB8804333A681344FA89D2B294
:400DC0001A70BB8805333A681344FA89120A92B2D2B21A70BB8806333A68134417221A70BB8807339AB23B1D386811461A46962300F0FCF8034618461037BD4680BD00BFCA
:400E000080B586B000AF02460B46FA71BB710223FB740023FB60FB79013B092B00F2928001A252F823F000BF510E00006B0E0000850E00009B0E0000B50E0000CF0E0000FB
:400E4000FF0E0000E90E0000150F00002B0F0000BA7913461B069B1A1B0203F57F3303F570737B610123FB7472E0BA7913461B069B1A1B0203F57F3303F2C1337B61042336
:400E8000FB7465E0BA7913461B069B1A1B0203F57F3303F2C5337B615AE0BA7913461B069B1A1B0203F57F3303F2C9337B610423FB744DE0BA7913461B069B1A1B0203F522
:400EC0007F3303F574737B610123FB7440E0BA7913461B069B1A1B0203F57F3303F2D1337B610123FB7433E0BA7913461B069B1A1B0203F57F3303F2D6337B6128E0BA79F0
:400F000013461B069B1A1B0203F57F3303F2D2337B611DE0BA7913461B069B1A1B0203F57F3303F575737B6112E0BA7913461B069B1A1B0203F57F3303F576737B61042304
:400F4000FB7405E0002000F09BFA00237B6100BFFB7C012B03D17B691B78DBB2FB60FB7C022B0BD17B691B78DBB2FB607B6901331B78DBB21B02FA681343FB60FB7C042BF7
:400F80001BD17B691B78DBB2FB607B6901331B78DBB21B02FA681343FB607B6902331B78DBB21B04FA681343FB607B6903331B78DBB21B06FA681343FB60FB681846183795
:400FC000BD4680BD80B500AF62B60020022100F0C7FC024B01221A7080BD00BF4481FF1F80B500AF012000F089FF80BD80B586B000AFF8607A600A467A817B727B7A9BB266
:401000001A46920013445B007B820220F968402200F0AAFE05E0012000F04EFA7B8A013B7B82022000F056FE0346002B02D17B8A002BF0D1022000F04DFE0346002B02D1D4
:4010400010237B6104E07B687A891A8000237B617B6918461837BD4680BD00BF80B586B000AFF8607A600A467A817B727B7A9BB21A46920013445B007B827B89402B01D9BE
:4010800040237B812F4B1B78002B1BD005E0012000F012FA7B8A013B7B8200F0F5FD0346002B02D17B8A002BF1D100F0EDFD0346002B13D000F0F4FDFFF792FF214B00222C
:4010C0001A700BE000F0ECFD0346002B06D000F0DBFD0346002B01D0FFF782FF7B7A9BB21A46920013445B007B8205E0012000F0E3F97B8A013B7B82012000F0EBFD03469F
:40110000012B02D07B8A002BF0D1012000F0E2FD0346012B0CD17B890120F9681A4600F0A7FE03461A467B681A8000237B6104E07B6800221A8010237B617B6918461837BB
:40114000BD4680BD4481FF1F80B400AF054B1B78DBB203F040039B09DBB21846BD465DF8047B7047415100400230800800F0058000BF013800467FF4FCAF7047EFF3108020
:4011800072B6704780F31088704700BFAFF3008080B582B000AF00F039FA4FF0FF337B6000F05EFB0346002B24D1012000F026FB0346072B1BD11348022100F049FA0346E3
:4011C000022B0DD100237B6002E0012000F096F90D4B1B78DBB203F00203002BF5D006E0094B1B78DBB203F00203002BE3D000F06BFB01E004237B607B6818460837BD4618
:4012000080BD00BF5881FF1F2247004080B582B000AF00F0FBF900F023FB0346002B23D100F07AFB78607B68072B1AD102E0012000F064F9104B1B78DBB203F00203002B77
:40124000F5D00D4B1B78DBB203F00203002B08D0094B1B78DBB29B08DBB2002B01D100237B6000F031FB01E004237B607B6818460837BD4680BD00BF2247004080B582B009
:4012800000AFFFF7C3FF78607B68002B02D1FFF77FFF78607B6818460837BD4680BD00BF80B586B000AFBA600246FA730A46BA81FB8000237B61FB7B3F2B04D8FB7B042BF4
:4012C00001D901237B61FB7B5BB2002B01DA01237B61FB7B3F2B04D9FB7B412B01D901237B61FB7B3F2B06D8BB89B3F5807F0CD901237B6109E0BB89802B01D901237B61D2
:40130000FB88102B01D001237B61BB68002B01D101237B617B69002B62D100F0A1FA0346002B5BD1F97BBA89FB8808461146BA6800F0BAF978617B69072B4CD102E00120DE
:4013400000F0DCF8294B1B78DBB203F00203002BF5D0264B1B78DBB203F00203002B09D0224B1B78DBB29B08DBB2002B02D100237B6102E04FF0FF337B617B69002B2AD1AD
:401380001B4B1A781A4B5B78F87BB98900F0F2F978617B69072B1ED102E0012000F0AEF8124B1B78DBB203F00203002BF5D00F4B1B78DBB203F00203002B09D00B4B1B7832
:4013C000DBB29B08DBB2002B02D100237B6102E04FF0FF337B6100F077FA01E004237B617B6918461837BD4680BD00BF224700405881FF1F80B582B000AFFFF7BFFE03467D
:40140000FB71194B184A1278D2B242F00802D2B21A70164B154A1278D2B242F00802D2B21A70134BC8221A70124B124A1278D2B242F01002D2B21A700F4B0F4A1278D2B25E
:4014400042F01002D2B21A7000BF0C4B1B78DBB203F02003002BF8D0FB791846FFF792FE0837BD4680BD00BFA0430040B043004001470040AC430040BC4300400047004072
:4014800080B483B000AF0346FB7101BE0C37BD465DF8047B704700BF80B400AF054B054A1278D2B242F00102D2B21A70BD465DF8047B7047F646004080B582B000AF786047
:4014C00008E00C4B1B681846FFF74EFE7B68A3F500437B607B68B3F5004FF2D8064B1B687A6802FB03F31846FFF73EFE0837BD4680BD00BF2081FF1F1881FF1F80B582B0F9
:4015000000AF0346FB80FB88044A127802FB03F31846FFF729FE0837BD4680BD1C81FF1F80B582B000AFFFF729FE0346FB7100BF00BF00BF00BF00BF00BF00BF00BF00BF96
:4015400000BF00BF00BF00BF00BF00BF00BF094B084A128892B242F0040292B21A80054B1B88BFF36F8FFB791846FFF70BFE0837BD4680BD0048004080B584B000AF0346BC
:401580003960FB710F4B1B68FB60FB791F2B02D90020FFF775FFFB7903F01F0310339B00FA6813441B68BB60FB7903F01F0310339B00FA6813443A681A60BB681846103709
:4015C000BD4680BD08ED00E080B582B000AF02460B46FA71BB71BB79072B02D90020FFF74FFFFB791F2B02D90020FFF749FFFB7903F01F0303F1604303F56443BA795201AF
:40160000D2B21A700837BD4680BD00BF80B582B000AFFFF7B3FD0346FB710B4B0A4A1278D2B242F00802D2B21A70084B074A1278D2B242F00802D2B21A70FB791846FFF727
:40164000A1FD0837BD4680BDA0430040B043004080B584B000AF78600B46FB700023FB7314E002E00120FFF749FF0D4B1B78DBB203F00103002BF5D0FB7B7A681344094A24
:401680001278D2B21A70FB7B0133FB73FA7BFB789A42E6D3FB7B18461037BD4680BD00BF224700402047004080B489B000AFBA600246FA730A46BA81FB800723FB612B4BA6
:4016C0001B78DBB203F00203002B45D0284BB6221A70274BD5221A70254B02221A70234B1B78DBB203F00203002B32D1204BFA7B1A7000237B8308E01D4B7A8BB9680A44A9
:4017000012781A707B8B01337B837A8BFB889A42F2D3FB88B3F5807F20D1FB7B3F2B1DD8FB7B03F510331A02BB8913445B017B6100237B8309E00E4B798B7A690A44127882
:40174000D2B21A707B8B01337B837B8B1F2BF2D904E00923FB6101E00423FB61FB6918462437BD465DF8047B704700BF224700402047004080B485B000AFF871B980BA7199
:40178000FB700723FB601B4B1B78DBB203F00203002B26D0184BB6221A70174BD8221A70154B05221A70134B1B78DBB203F00203002B13D1104BFA791A700F4BBA88120A49
:4017C00092B2D2B21A700C4BBA88D2B21A700A4BBA791A70084BFA781A7004E00923FB6001E00423FB60FB6818461437BD465DF8047B7047224700402047004080B485B06E
:4018000000AF0346FB710723FB60134B1B78DBB203F00203002B16D0104BB6221A700F4BE1221A700D4B0E221A700B4B1B78DBB203F00203002B03D1084BFA791A7004E0E1
:401840000923FB6001E00423FB60FB6818461437BD465DF8047B7047224700402047004080B582B000AF04237B60FFF787FC0346FB70124B1B78002B16D1104B01221A7045
:4018800000237B600E4B1B6803F00103002B0BD00B4B0B4A126822F001021A6000BF00BF00BF084B01221A60FB781846FFF76AFC7B6818460837BD4680BD00BF4881FF1FDD
:4018C000040008404C81FF1F80B582B000AFFFF755FC0346FB710D4B00221A700C4B1B68012B0BD10B4B0B4A126842F001021A6000BF00BF00BF064B00221A60FB791846E9
:40190000FFF740FC0837BD4680BD00BF4881FF1F4C81FF1F0400084080B483B000AF07237B600D4B1B78DBB203F00203002B09D00A4BB6221A70094BE0221A70074B0D2272
:401940001A7001E004237B607B6818460C37BD465DF8047B704700BF224700402047004080B582B000AF02460B46FA71BB71094B1B78002B04D100F00FF8064B01221A70B7
:40198000FA79BB791046194600F0C2F80837BD4680BD00BF5081FF1F80B582B000AFFFF7EDFB0346FB714B4B4A4A1278D2B242F00102D2B21A70484B474A1278D2B242F06C
:4019C0000102D2B21A70454B01221A70444B02221A70444B434A1278D2B202F07F02D2B21A700020FFF78AFD3F4B3F4A1278D2B222F00602D2B21A703C4B3C4A1278D2B2B0
:401A000022F02002D2B21A70374B374A1278D2B242F00102D2B21A700120FFF76FFD2820FFF76CFD324B324A1278D2B202F07F02D2B21A702E4B2E4A1278D2B222F040020B
:401A4000D2B21A70284B284A1278D2B242F00202D2B21A700220FFF751FD234B224A1278D2B242F00402D2B21A70224B00221A70214B00221A70FB791846FFF783FB1720DF
:401A80001E49FFF779FD17200721FFF79DFD15201B49FFF771FD15200721FFF795FD18201849FFF769FD18200721FFF78DFD00201549FFF761FD00200721FFF785FD0120FA
:401AC0001249FFF759FD01200721FFF77DFD0837BD4680BDA5430040B54300409D60004009600040106000409443004012600040F851004084600040856000403D26000013
:401B0000312600005D1F000089250000DD25000080B584B000AF02460B46FA71BB710023FB7306E0FB7B284A0121D154FB7B0133FB73FB7B002BF5D0244B4FF400021A6088
:401B4000224B4FF080721A60204B01221A601F4B02221A601E4B00221A70BB79002B02D0012B04D007E01B4B02221A7007E0194B03221A7003E0174B03221A7000BF164BEE
:401B8000FA791A70154B00221A70154B00221A70144B00221A70144B00221A70134B00221A70134B00221A70124B03221A70124B80221A700120FFF7D7FA104B04221A705E
:401BC0001037BD4680BD00BFFC81FF1F00E100E07681FF1F096000407081FF1F7581FF1F7181FF1F7481FF1F5C81FF1F7381FF1FED81FF1F28600040086000401260004084
:401C000080B483B000AF0023FB7106E0FB79144A0121D154FB790133FB71FB79002BF5D0104B00221A70104B00221A700F4B00221A700F4B00221A700E4B00221A700E4B10
:401C400000221A700D4B00221A700D4B03221A700C4B80221A700C37BD465DF8047B7047FC81FF1F7681FF1F7581FF1F7181FF1F7481FF1F5C81FF1F7381FF1FED81FF1FD9
:401C8000286000400860004080B400AF034B1B78DBB21846BD465DF8047B70477581FF1F80B483B000AF0023FB71094B1B78DBB2002B05D0064B1B78FB71054B00221A70FE
:401CC000FB7918460C37BD465DF8047B704700BF7481FF1F80B483B000AF0346FB71FA79064913465B0013449B000B445B78DBB218460C37BD465DF8047B70478081FF1F3F
:401D000080B485B000AF0346FB710023FB81FB79002B1DD0FB79082B1AD8FB79013BDBB21B017B737A7B0E4B13441B78DBB203F00F03FB81FB891B029AB2797B094B0B4401
:401D40001B78DBB213439BB2FB81FB89023BFB81FB8918461437BD465DF8047B704700BF0C6000400D60004090B484B000AF396013460246FA71BB80FB79002B69D0FB79C1
:401D8000082B66D8FB79013BDBB21B017B737A7B324B1344BB60B988FA79314813465B0013449B000344DB889BB2C3F5007399420BD9FA792A4913465B0013449B000B44F8
:401DC000DB889BB2C3F50073BB807A7B254B13441946BB881B0A9BB2D8B2FA79204C13465B0013449B002344DB78DBB20343DBB20B707A7B1C4B1344BA88D2B21A703B68B3
:401E0000002B0FD00023FB8108E0FB893A6813441A78BB681A70FB890133FB81FA89BB889A42F2D3FA790E4913465B0013449B000B4400225A707A7B0C4B13441946FA799A
:401E4000074813465B0013449B0003445B79DBB20B701037BD4690BC704700BF886000408081FF1F0C6000400D6000400E60004080B586B000AF396013460246FA71BB80F6
:401E8000FB79002B30D0FB79082B2DD83B68002B2AD0FB79013BDBB21B017B757A7D164B13443B61FB791846FFF72AFF0346FB81BA88FB899A4201D9FB89BB800023FB82EA
:401EC00009E0FB8A3A6813443A691278D2B21A70FB8A0133FB82FA8ABB889A42F1D3FB79184600F00BF801E00023BB80BB8818461837BD4680BD00BF8860004080B485B01F
:401F000000AF0346FB71FB79002B1ED0FB79082B1BD8FB79013BDBB21B01FB73FA790D4913465B0013449B000B4400225A70FA7B094B13441946FA79064813465B0013445A
:401F40009B0003445B79DBB20B701437BD465DF8047B70478081FF1F0E60004080B582B000AF374B1B78BB71BB7903F01003002B63D00123FB71BB795BB2002B13DABB79F1
:401F800003F00F03012B02D00023FB711DE000F061F82C4B1B78DBB2DBB25BB2002B14DA0023FB7111E0BB7903F04003002B02D000F094F809E0BB7903F02003002B02D06C
:401FC00000F0B2F801E00023FB71FB79002B34D01B4B1B78BB71BB795BB2002B2DDB1A4B1B78DAB2194B1B78DBB21343BB71184BBA791A70164B1B78DBB2BA799A421CD174
:40200000104B1B78FB710E4B1B78DBB223F07F03BB71BB79002B0AD1094B0A4A1278D2B21A70074B1B78DBB203F00F03FB71054B1B78DBB2FA799A42E2D10837BD4680BDBE
:40204000286000405D81FF1F7281FF1FEE81FF1F2960004080B582B000AF1D4B1B78FB711B4BFA791A701A4B1B78FB71FB795BB2002B03DA174BFA791A7025E0022000F0F2
:4020800049FA154B1B78DBB203F06003202B08D0402B0BD0002B0ED100F0B8FC0346FB710CE001F041FC0346FB7107E001F01EFC0346FB7102E00023FB7100BFFB79002BF6
:4020C00002D1044B03221A700837BD4680BD00BF286000405D81FF1F0060004080B500AF104B1B78DBB2062B19D801A252F823F01F2100001F2100000D2100001F210000FE
:40210000132100001F2100001921000000F0FCF806E000F0AFF903E000F0D8F900E000BF80BD00BF7681FF1F80B500AF124B1B78DBB2062B1DD801A252F823F07321000020
:402140007321000059210000732100005F210000732100006521000000F0DCF80AE000F02DF907E0032000F0D5F9044B03221A7000E000BF80BD00BF7681FF1F5D81FF1FED
:4021800080B483B000AF0023FB712B4B1B78DBB21A462A4B1B889BB213449AB2274B1A8018E0FB7903F1804303F5C043244A52681278D2B21A70224B5B685A1C204B5A60C7
:4021C000FB790133FB711E4B1B889BB2013B9AB21B4B1A801A4B1B889BB2002B02D0FB79072BDED9144B1B78DBB2082B02D0FB79002B0FD0134B1B78DBB283F07F03DB43A8
:40220000DAB2104B1A70104B0F221A700F4B02221A7005E00C4B02221A700C4B02221A70054BFA791A700A4BFA791A700C37BD465DF8047B704700BFED81FF1FF081FF1FD6
:402240006481FF1F7281FF1F5D81FF1F7681FF1FEE81FF1F80B582B000AF154B1B889BB2002B02D100F02EF81DE0124B02221A70114B00221A7000F06DF9104B1B78DBB251
:402280001B029AB20E4B1B78DBB213439BB2FB80074B1B889BB2FA889A4202D2044BFA881A80FFF76DFF012318460837BD4680BD6481FF1F7681FF1F7281FF1F076000400C
:4022C0000660004080B400AF0A4B02221A700A4B80221A70094B0F221A70094B00221A70084B00221A7001231846BD465DF8047B704700BF7681FF1F7281FF1F5D81FF1FD2
:40230000ED81FF1FEE81FF1F80B500AFFFF738FF80BD00BF80B500AF0A4B1B78DBB21A46094B1B889BB213449AB2074B1A80074B00221A70012000F0EDF8054B03221A70F8
:4023400080BD00BFED81FF1FF081FF1F7681FF1F5D81FF1F80B582B000AF124B04221A70114B80221A7000F0F5F8104B1B78DBB21B029AB20E4B1B78DBB213439BB2FB8032
:402380000C4B1B889BB2FA889A4202D2094BFA881A80094B0B221A70012318460837BD4680BD00BF7681FF1F7281FF1F07600040066000406481FF1F5D81FF1F80B483B090
:4023C00000AF0023BB71254B1B78DBB203F00F03DBB2023BFB71FB799AB2214B1B889BB213449AB21E4B1A801BE01E4B5A68BB7903F1804303F5C0431B78DBB21370194B3F
:402400005B685A1C174B5A60BB790133BB71FB79013BFB71134B1B889BB2013B9AB2114B1A80104B1B889BB2002B02D0FB79002BDBD10D4BFA791A700C4B1B78DBB283F0F9
:402440007F03DB43DAB2094B1A70094B0B221A700C37BD465DF8047B704700BF29600040F081FF1F6481FF1FEE81FF1F7281FF1F5D81FF1F80B500AF044B00221A700120C2
:4024800000F048F8024B03221A7080BD7681FF1F5D81FF1F80B400AF084B06221A70084B06221A70074B80221A70074B00221A7001231846BD465DF8047B70477681FF1F14
:4024C0005D81FF1F7281FF1FEE81FF1F80B500AF0C4B1B78DBB2002B0AD00B4B094A1278D2B262F07F02D2B21A70064B00221A70064B00221A70012000F00CF8044B0322C7
:402500001A7080BD5C81FF1F086000407681FF1F5D81FF1F80B483B000AF0346FB710B4B9B68002B0CD0094B9B68FA791A70074B9B68074A128892B25A80044B00229A60D8
:402540000C37BD465DF8047B704700BF6481FF1FF081FF1F80B400AF094B00221A80094B9B68002B07D0074B9B6800221A70054B9B6800225A80BD465DF8047B704700BF50
:40258000F081FF1F6481FF1F80B400AF104B1B78104B1B7BDBB203F00303012B08D00D4BDB7BDBB283F07F03DB43DAB2094BDA73084B01225A73084B074A1278D2B222F0BB
:4025C0000102D2B21A70BD465DF8047B704700BF0E6000408081FF1F0B60004080B400AF104B1B78104B1B7EDBB203F00303012B08D00D4BDB7EDBB283F07F03DB43DAB2D9
:40260000094BDA76084B01225A76084B074A1278D2B222F00202D2B21A70BD465DF8047B704700BF1E6000408081FF1F0B60004080B400AFBD465DF8047B704780B500AFB0
:40264000FFF7DEFA80BD00BF80B582B000AF0023FB716F4B1B78BB716E4B1B78DBB2DBB25BB2002B6DDA6C4B1B78DBB2013B052B65D801A252F823F0D7260000F1260000F9
:402680001D2700003F2700003F27000091260000624B1B78DBB2212B0BD100F0CBF8604B1B889BB2002B15D0FFF7D4FD0346FB7146E05A4B1B78DBB2222B0BD100F0F8F890
:4026C000574B1B889BB2002B04D0FFF7C3FD0346FB7135E034E000F031F9514B1B889BB2002B04D0FFF7B6FD0346FB7128E027E0BB79002B11D14B4B1B78DBB2002B0CD1A4
:40270000474B01221A80BA79474B1A44444B5A60FFF7A0FD0346FB7112E011E0BB79002B0CD13F4B01221A80BA79404B1A443C4B5A60FFF78FFD0346FB7101E000E000BF1C
:4027400061E0344B1B78DBB2DBB25BB2002B5ADB314B1B78DBB20A2B11D00B2B3FD0092B00D050E000F0EAF82D4B1B889BB2002B04D0FFF7EFFD0346FB7144E043E0BB7909
:40278000002B2BD1274B1B78DBB2002B26D1BB79224A1278D1B2244AD154BB79224AD35CDAB2BB792249CB5CDBB29A4204D2BB791F4A0021D1540CE0BB791D4AD35CDBB278
:4027C000012B06D9BB79BA7917498A5CD1B2184AD154FFF75FFE0346FB7114E013E0BB79002B0FD10F4B1B78DBB2012B0AD8BB790C4A1278D1B20D4AD154FFF74BFE0346C6
:40280000FB71FFE700BFFB7918460837BD4680BD046000400060004001600040036000406481FF1F02600040F481FF1FFC81FF1FF881FF1F80B584B000AF194B1B78DBB2A8
:40284000013BDBB2184600F0A1FEF860154B1B78FB72FB7A0233DB00FA681344FB60FB685B68FB60FB7A104AD35CDBB2DB00FA681344FB60FB685B68FB60FB682033FB60C4
:40288000FB685B687B607B681B78DBB21A46074B1A80064B7A685A601037BD4680BD00BF7581FF1F046000406081FF1F6481FF1F80B584B000AF1D4B1B78DBB2013BDBB272
:4028C000184600F063FEF860194B1B78FB72FB7A0233DB00FA681344FB60FB685B68FB60FB7A144AD35CDBB2DB00FA681344FB60FB685B68FB60FB681833FB60FB685B6825
:402900007B607B6801331B78DBB21B029AB27B681B78DBB213439BB29AB2074B1A807B689A1C054B5A601037BD4680BD7581FF1F046000406081FF1F6481FF1F80B584B0F1
:4029400000AF2C4B00221A802B4B1B78DBB2013BDBB2184600F01AFEF860284B1B78FB72274B1B78BB72BB7A0233DB00FA681344FB60FB685B68FB60BB7A002B37D1BB7A3C
:40298000204AD35CDBB2DB00FA681344FB60FB685B68FB60FB7A002B29D0FB7A032B26D8FB7A03F10053013BDB00FA681344FB60154B1B78FB72FB681B78FA7A9A4216D8CC
:4029C000FB685B687B60FA7A13465B0013449B007A6813447B607B685A68064B5A607B681A88044B1A807B689A68024B9A601037BD4680BD6481FF1F7581FF1F036000401D
:402A0000046000406081FF1F0260004080B586B000AF0023FB7500233B61984B00221A80974B1B78DBB2DBB25BB2002B80F2FB80944B1B78DBB20A2B00F2F38001A252F80C
:402A400023F000BF772B0000232C0000232C0000232C0000232C0000232C0000712A0000232C0000ED2B0000232C0000032C0000854B1B78DBB2012B0ED100F0B1FDB86026
:402A8000BB685A687D4B5A607C4B12221A80FFF7E1FB0346FB756DE07B4B1B78DBB2022B23D17A4B1B78DBB2184600F06FFDB860BB68002B5ED0BB685A68704B5A606F4BF4
:402AC0005B6803331B78DBB21B029AB26B4B5B6802331B78DBB213439BB29AB2674B1A80FFF7B8FB0346FB759CE0674B1B78DBB2032B3AD10023FB73654B3B6109E03B69F8
:402B00001B78FB71FB793A6913443B61FB7B0133FB735E4B1B78DBB2FA7B9A4204D23B691B78DBB2002BEAD1584B1B78DBB2002B08D0564B1B78DAB2564B1B7C9A4201D16E
:402B4000554B3B613B691B78DBB2002B12D03B691B78DBB21A46494B1A80484B3A695A60FFF778FB0346FB755CE000F0DDFE0346FB7557E056E0424B1B78DBB203F0030311
:402B8000002B1FD0022B00D02FE03C4B02221A80424B1B78DBB203F07F02414913465B0013449B000B449B78DAB23E4B1A703D4B00225A70314B3B4A5A60FFF74BFB0346A4
:402BC000FB7512E02D4B02221A80374B1B78DAB2344B1A70334B00225A70284B314A5A60FFF738FB0346FB7500BF1BE0234B01221A80224B2D4A5A60FFF72CFB0346FB7546
:402C000010E01E4B01221A80244B1B78DBB21A46274B1A44194B5A60FFF71CFB0346FB7500E000BF1DE1174B1B78DBB2013B0A2B00F2168101A252F823F000BF492D00008D
:402C4000612E0000D52D0000612E0000692C0000612E0000612E0000612E0000B92C0000612E00000F2D0000084B1B78DAB2114B1A70FFF70FFC0346FB75F2E06481FF1F5B
:402C800000600040016000400360004002600040203B0000E03A0000743B0000046000408081FF1F5481FF1F7381FF1F7581FF1F6081FF1F5C81FF1F6C4B1B78BB71BB79EA
:402CC000002B06D0BB79013BDBB2184600F05EFCB860BB79002B02D0BB68002B02D1BB79002B13D1624B1B78DBB2BA799A4208D05F4BBA791A705F4B01221A70012000F0FE
:402D000089F9FFF7C7FB0346FB75AAE0A9E000F0B1FD0346002B16D0574B1B787B71574B7A791A70534B01221A7000F0F5FA7B797A7953498A5CD1B2524AD154FFF7AAFBE3
:402D40000346FB758DE08CE04F4B1B78DBB203F00303012B22D0012B0DD3022B00D038E0424B1B78DBB2002B04D100F0E1FC0346FB752EE02DE03D4B1B78DBB2012B0CD1D0
:402D8000424B1B78DBB223F00203DAB23F4B1A70FFF780FB0346FB751BE01AE0364B1B78DBB2002B14D1344B1B78DBB21A463849CB5CD9B22D4B1B78DBB2DB43DBB20B401E
:402DC000D9B2334B9954FFF765FB0346FB75FFE700BF46E02C4B1B78DBB203F00303012B22D0012B0DD3022B00D038E01F4B1B78DBB2002B04D100F02BFC0346FB752EE0CC
:402E00002DE01A4B1B78DBB2012B0CD11F4B1B78DBB243F00203DAB21C4B1A70FFF73AFB0346FB751BE01AE0134B1B78DBB2002B14D1114B1B78DBB21A461549CB5CD9B265
:402E40000A4B1B78DBB2DB43DBB20B40D9B2104B9954FFF71FFB0346FB75FFE700BF00E000BFFB7D18461837BD4680BD026000407581FF1F7481FF1F046000407181FF1F25
:402E80006081FF1FEC81FF1F006000407381FF1F7881FF1F80B483B000AF0123FB710023BB7197E0BB7903F1804303F5C1430C221A70FA794E4913465B0013449B000B44B5
:402EC0005B79DBB2002B18D0FA79494913465B0013449B000B441B79DBB2DBB25BB2002B05DABA79434B13440C221A700AE0BA79404B134408221A7004E0BA793D4B134426
:402F000080221A70BA793C4B13441946FA79384813465B0013449B00034408331B889BB21B0A9BB2DBB20B70BA79344B13441946FA792F4813465B0013449B0003440833F6
:402F40001B889BB2DBB20B70BA792D4B13441946FA79274813465B0013449B000344DB889BB2DBB20B70BA79264B13441946FA791F4813465B0013449B000344DB889BB2A0
:402F80001B0A9BB2DBB20B70BA791F4B13441946FA79174813465B0013449B000344DB889BB2DBB20B70BA79184B13441946FA790F4813465B0013449B000344DB889BB21A
:402FC0001B0A9BB2DBB20B70FB790133FB71BB791033BB71BB795BB2002BBFF663AF0C4BFF221A700C37BD465DF8047B704700BF8081FF1F0E6000400C6000400D600040B5
:40300000866000408760004084600040856000400A60004080B588B000AF0346FB7100237B830023FB7743E0FA7FA34913465B0013449B000B4400221A70FA7F9E491346E7
:403040005B0013449B000B4400229A70FA7F9A4913465B0013449B000B4400225A70FA7F954913465B0013449B000B440022DA70FA7F914913465B0013449B000B44002229
:403080005A71FA7F8C4913465B0013449B000B44083300221A80FA7F874913465B0013449B000B44083300229A70FB7F0133FB77FB7F082BB8D9FB79002B10D000237B7774
:4030C0000AE07B7F7D4A0021D1547B7F7C4A0021D1547B7F01337B777B7F002BF1D0794B1B78DBB2002B00F01181764B1B78DBB2013BDBB2184600F049FA38613B695B6807
:40310000FB60FB6807331B7803F04003002B08D06D4B1B78DBB243F00103DAB26A4B1A7007E0694B1B78DBB223F00103DAB2664B1A703B6908333B613B691B78FB77012310
:403140007B778DE03B695B687B610023BB777FE07A7F7B699B7803F07F039A4272D17A7F554913465B0013449B000B4408331B889AB27B699B889A420BD27A7F7B69998801
:403180004D4813465B0013449B00034408330A461A807B691B78494AD35CDAB27B695B789A424FD17B69DB7803F00303FB727B699B78DBB25BB2002B17DA7A7F3E491346CD
:4031C0005B0013449B000B4401225A70797FFB7A012B01D1072200E00D2237480B465B000B449B0003445A7116E07A7F324913465B0013449B000B4400225A70797FFB7AC4
:40320000012B01D1052200E009222B480B465B000B449B0003445A717A7F7B699978264813465B0013449B0003440A461A717A7F7B69D978204813465B0013449B0003449C
:403240000A461A707B6908337B61BB7F0133BB77BA7FFB7F9A42FFF47BAF7B7F01337B777B7F082B7FF66EAF3B695B687B6100237B7714E07B699B7803F07F027B69197822
:403280000D4813465B0013449B00034408330A469A707B6908337B617B7F01337B777A7FFB7F9A42E6D300F0ADF90246074B1A600123FB7725E000BF8081FF1F6081FF1FF2
:4032C000EC81FF1F7581FF1F7381FF1F7C81FF1FFA7F104913465B0013449B000B447A8BDA80FA7F0B4913465B0013449B000B4408331B889AB27B8B13447B83FB7F0133E7
:40330000FB77FB7F082BE3D9FFF7C4FD2037BD4680BD00BF8081FF1F80B584B000AF8F4B1B78DBB2002B00F015818C4B1B78DBB2013BDBB2184600F029F978607B6808339D
:403340007B607B681B78FB707B685B68BB600023FB73FAE0BB681B78814AD35CDAB2BB681B788049CB5CDBB29A4200F0E880BB681B787B4AD35CDAB2BB685B789A4240F08A
:40338000DE80BB681A78784B1B78DBB29A4240F0D680BB689B7803F07F03BB70BB78013BDBB21B017B70BB68DB7803F003033B70BB689B78DBB25BB2002B17DABA786B49F0
:4033C00013465B0013449B000B4401225A70B9783B78012B01D1072200E00D2263480B465B000B449B0003445A7116E0BA785F4913465B0013449B000B4400225A70B9789C
:403400003B78012B01D1052200E0092257480B465B000B449B0003445A717A78544B134401221A70BA78BB689988504813465B0013449B00034408330A461A80BA78BB6858
:4034400099784A4813465B0013449B0003440A461A71BA78BB68D978444813465B0013449B0003440A461A70BA78404913465B0013449B000B440022DA707A783D4B1344FB
:403480001946BA78394813465B0013449B00034408331B889BB21B0A9BB2DBB20B707A78354B13441946BA78304813465B0013449B00034408331B889BB2DBB20B707A7884
:4034C0002E4B13441946BA78284813465B0013449B000344DB889BB2DBB20B707A78284B13441946BA78214813465B0013449B000344DB889BB21B0A9BB2DBB20B707A7897
:40350000204B13441946BA78184813465B0013449B000344DB889BB2DBB20B707A781A4B13441946BA78114813465B0013449B000344DB889BB21B0A9BB2DBB20B70BB6861
:403540000833BB60FB7B0133FB73FA7BFB789A42FFF400AF1037BD4680BD00BF7581FF1F6081FF1FEC81FF1F046000408081FF1F0E6000400C6000400D60004086600040A3
:4035800087600040846000408560004080B485B000AF0346FB71104B1B78DBB20F4ADB0013445B68FB60FB680833FB60FB681B78FA799A4202D30023FB6005E0FB79DB00E5
:4035C000FA6813445B68FB60FB6818461437BD465DF8047B704700BF7081FF1F343C000080B400AF054B1B78DBB2054ADB0013445B681846BD465DF8047B70477081FF1F8A
:40360000343C000080B584B000AF104B1B78DBB2013BDBB21846FFF7B9FFB860BB68002B0DD0BB685B681B79FB71FB790233DB00BA681344BB60BB685B68FB6001E000232C
:40364000FB60FB6818461037BD4680BD7581FF1F80B582B000AF0023FB71324B1B78DBB203F07F03BB71BB79013BDBB21B017B71BB79002B51D0BB79082B4ED8BA79B97939
:4036800029480B465B000B449B0003449B78DBB243F00103D9B2244813465B0013449B0003440A469A70BA791F4913465B0013449B000B440022DA70BA79B9791A480B4693
:4036C0005B000B449B0003445B78DBB243F00203D9B2154813465B0013449B0003440A465A70BA79104913465B0013449B000B441B79DBB2DBB25BB2002B05DA7A790B4B28
:4037000013448D221A7004E07A79084B134489221A70FEF7BFFE0346FB71FB7918460837BD4680BD046000408081FF1F0E60004080B582B000AF0023FB714A4B1B78DBB2C0
:4037400003F07F03BB71BB79013BDBB21B017B71BB79002B00F08180BB79082B7DD8BA79B97941480B465B000B449B0003449B78DBB223F00103D9B23B4813465B001344FC
:403780009B0003440A469A70BA79374913465B0013449B000B440022DA707A79334B13441A467979314B0B441B78DBB203F07F03DBB21370BA79B9792B480B465B000B445C
:4037C0009B0003445B78DBB223F00203D9B2264813465B0013449B0003440A465A70BA79214913465B0013449B000B441B79DBB2DBB25BB2002B16DABA791B4913465B00BC
:4038000013449B000B445B78DBB2012B05D17A79174B13440C221A701BE07A79144B13440D221A7015E0BA790F4913465B0013449B000B445B78DBB2012B05D17A790C4B03
:40384000134408221A7004E07A79094B134409221A70FEF71FFE0346FB71FB7918460837BD4680BD046000408081FF1F0C6000400E60004080B584B000AF0123FB73164BC6
:403880001B78BB73154B1B78DBB2013BDBB21846FFF77CFEB860BB685B681B79FB71BA7BFB799A4202D2BB7B002B02D00023FB730CE0BB7BBA7B0A498A5CD1B2094AD1548A
:4038C000BB7B094A1278D1B2054AD154FB7B18461037BD4680BD00BF046000407581FF1F6081FF1FEC81FF1F0260004080B483B000AF0023FB710A4B1B78DBB2DBB25BB20C
:40390000002B06DA074B1B78DBB2012B00D000E000BFFB7918460C37BD465DF8047B7047006000400160004080B582B000AF0023FB710023BB711B4B1B78DBB203F0030318
:40394000012B02D0022B04D012E0174B1B78BB710EE0154B1B78DBB203F07F02134913465B0013449B000B4408339B78BB7100BF0F4B1A68BB7913441B78022B09D0032B9B
:4039800002D0012B07D007E0FEF75EFE0346FB7102E000BF00E000BFFB7918460837BD4680BD00BF00600040046000408081FF1F7C81FF1F70B50E4B0E4D0024ED1AAD10B6
:4039C0001E46AC4204D056F8242090470134F8E700F034F9084D094B0024ED1AAD101E46AC4204D056F8242090470134F8E770BD483C0000483C0000503C0000483C00008E
:403A000010B50023934203D0CC5CC4540133F9E710BD02440346934202D003F8011BFAE770470000E2000000903C000000000000005100404000505100402000C05100401F
:403A4000100000000140001000140140000800400140000A004C014000020050014020000145004002520040011701400119014003400140024101400242014002430140DC
:403A80000347014003480140024C0140015101407E0224407C40EE0AEE0A33803640CC30A640A780A640A780A640A78008080F40C20CAE40AF80EE50AC08AF40000A0000BC
:403AC0000000000000000000C000000040000040000000000000000069A0162E001E01011201000200000008B4041DB70130010280010000090229000101008000090400F8
:403B00000002030000020921110100012224000705010340000107058203400001000000040309042C0343007900700072006500730073002000530065006D00690063009B
:403B40006F006E0064007500630074006F0072002203500053006F0043003300200042006F006F0074006C006F00610064006500720000000A033000300030003100000031
:403B8000240005010900A1000900A1000900150025FF7508954091020900150025FF750895408102C0C00000410000000482FF1F0082FF1F410000004882FF1F8C82FF1FEF
:403BC00000000000A83B000000000000B43B0000000000000000000001000000803B000001000000063B000001000000C03B000000000103400003000000820340000300EA
:403C00000300000001000000F43A000002000000F03B000001000000E83B000000000000003C000001000000E03A000001000000043C000001000000243C0000F8B500BF9C
:403C4000F8BC08BC9E467047510000004D010000F8B500BFF8BC08BC9E4670472D000000703C00000881FF1F200000006801000000000000243A0000283A000000366E01A5
:403C8000C05D0000180000000000E02E00000000000000000000000000000000000000000000000000000000000000000000000000000000000000000000000000000000C1
:403CC00000000000000000000000000000000000000000000000000000000000000000000000000000000000000000000000000000000000000000000000000000000000C4
:403D000000800020113D0000A1560000A156000080B500AF01F0FCFC10B5054C237833B9044B13B10448AFF300800123237010BD9081FF1F0000000064E8000008B5064BAF
:403D40001BB106480649AFF300800648036813B1054B03B1984708BD0000000064E800009481FF1F0881FF1F0000000080B584B000AF786007F10803184600211E2200F0CB
:403D8000E1FD07F108030548194601F069F90348034900F0C5F81037BD4680BDC481FF1F68E8000080B483B000AF78600C37BD465DF8047B704700BF80B483B000AF786039
:403DC0000C37BD465DF8047B704700BF80B483B000AF78607B68044A1A607B6818460C37BD465DF8047B7047E0E8000080B582B000AF78607B681846FFF7E8FF7B68034A84
:403E00001A607B6818460837BD4680BDB8E8000080B5C4B000AF07F586731846FFF7E6FF134B1B681B6804331B68114A116807F586720846114698473B1D184609210A22AC
:403E400000F07EFB3B1D18460A4900F0A1FB3B1D1846094900F09CFB3B1D1846074900F097FB0023184607F58877BD4680BD00BF0085FF1F7CE800008CE800009CE80000B3
:403E800090B585B000AF78607B68184601F0CCF87B681F4A1A607B681833184600F054F87B6803F2CE2318461A4900F01BFE7B6803F534731846184900F014FE7B680222A0
:403EC000C3F8D4227B680522C3F8D8221348012100F0DAFE7B68002283F8CC227B680022C3F8DC227B6803F10C0407F108031846B021BE2200F0A6FD07F10803204619468D
:403F000000F0B4FD7B6818461437BD4690BD00BFD0E80000C081FF1FAC81FF1F6485FF1F80B582B000AF7860396078683968012200F02CF878680349002200F027F8083701
:403F4000BD4680BDACE80000B0B582B000AF78607B68002283F8B0227B680022C3F8AC227C68786800F0A6F80546786800F096F8034603FB05F3204600211A4609F068FCF1
:403F80007B6818460837BD46B0BD00BF90B587B000AFF860B9601346FB71FB68D3F8DC32002B06DDFB68D3F8DC325A1EFB68C3F8DC22BB687B6155E0FB6803F11801FB68D0
:403FC000D3F8DC227B691B78084611461A4600F08DF8FB68D3F8DC325A1CFB68C3F8DC22FB68D3F8DC42F86800F070F803469C42D4BF00230123DBB2002B1DD0FB681833E1
:40400000184600F091F8FB680322C3F8DC22FB68183318460021202200F068F8FB68183318460121202200F061F8FB68183318460221202200F05AF87B691B780A2B09D1B7
:40404000FB681833184600F06FF8FB680022C3F8DC2204E07B691B78002B00D110E07B6901337B61FB68D3F8DC42F86800F02EF803469C42ACBF00230123DBB2002B9BD1A5
:40408000FB7983F00103DBB2002B04D0FB681B681B68F86898471C37BD4690BD80B483B000AF7860222318460C37BD465DF8047B704700BF80B483B000AF7860142318469A
:4040C0000C37BD465DF8047B704700BF80B582B000AF7860786800F08FF90346AC2292FBF3F318460837BD4680BD00BF80B485B000AFF860B9601346FB71BB68212B00DD2A
:404100000CE0FB68D3F8AC22F96813461B0113445B00BA6813440B44FA791A701437BD465DF8047B704700BF80B483B000AF78607B68D3F8AC325A1C7B68C3F8AC227B6873
:40414000D3F8AC32132B07DD7B680022C3F8AC227B68012283F8B0220C37BD465DF8047B704700BFF0B58DB002AF78607B6803F2CE2307F110021046194600F0B3FC07F179
:4041800010039C48194600F047FD7B6803F5347307F114021046194600F0A4FC07F114039448194600F04EFD7B680433184600F0F1FB03469C1C7B680433184600F0F6FB6D
:4041C0000346023307F10802104621461A4600F0B9FB7B681833184600F020F978626CE007F10803184600F0D5FB03469EB207F10803184600F0DAFB03469DB27B680C3329
:40420000184600F047FC03469BB2043B9CB2786800F018F90346009301230193754831462A46234600F03EFD7B6818331846796A00F01AF9386220E007F10803184600F0C0
:40424000A9FB03469CB207F10803184600F0AEFB03469AB23B6A1B786648214600F062FD786800F0C9F8034607F108021046194600F0B6FB3B6A01333B623B6A1B78002BCD
:4042800003D03B6A1B780A2BD6D1786800F0DAF803461A467B68D3F8D432134407F108021046194600F0ACFB07F108031846022100F088FB7B6A01337B627B6818331846FA
:4042C000FFF7F8FE02467B6A9A42D4BF00230123DBB2002B84D17B681833184600F09EF80346002B14BF00230123DBB2002B7DD10023FB616CE007F10803184600F04AFBDB
:4043000003469EB207F10803184600F04FFB03469DB27B680C33184600F0BCFB03469BB2043B9CB2786800F08DF80346009301230193304831462A46234600F0B3FC7B6834
:4043400018331846F96900F08FF8B86120E007F10803184600F01EFB03469CB207F10803184600F023FB03469AB2BB691B782148214600F0D7FC786800F03EF8034607F10C
:4043800008021046194600F02BFBBB690133BB61BB691B78002B03D0BB691B780A2BD6D1786800F04FF803461A467B68D3F8D432134407F108021046194600F021FB07F1E6
:4043C00008031846022100F0FDFAFB690133FB617B681833184600F05FF80246FB699A42B4BF00230123DBB2002B84D12C37BD46F0BD00BF6485FF1F80B582B000AF78606D
:40440000054800F035FC03461A4692001344DBB218460837BD4680BD6485FF1F80B582B000AF78607B6893F8B032002B05D0786800F032F80346013300E0002318460837B6
:40444000BD4680BD80B582B000AF7860054800F00FFC03461A46D200D31ADBB218460837BD4680BD6485FF1F80B483B000AF786039603B68132B07DC3A6813461B01134434
:404480005B007A68134400E0002318460C37BD465DF8047B704700BF80B483B000AF78607B68D3F8AC3218460C37BD465DF8047B704700BF80B582B000AF786039607B68A5
:4044C000012B23D13A684FF6FF739A421ED1114840F6210100F0F6FA0F48002100F0F2FA0E484FF4784100F0EDFA0D484FF4FC6100F0E8FA0B481F2100F0E4FA0A484FF6AB
:40450000FF7100F0DFFA0948FFF7BAFC0837BD4680BD00BFAC81FF1FB081FF1FB481FF1FB881FF1FBC81FF1FC081FF1FC481FF1F80B500AF01204FF6FF71FFF7BBFF80BDFF
:4045400080B582B000AF786013460A467A803B800C480D49FFF7E4FC7B68002283F800217B684FF4FA62C3F804210020022101F007FB04480549FFF7D3FC7B681846083757
:40458000BD4680BDC481FF1FF0E8000014E900000EB480B585B000AF786010481049FFF7BFFC786800F01EF807F12003FB607B681846F969FA6809F089FD7B6893F80031EF
:4045C000002B03D07B68184601F0C4FD002318461437BD46BDE8804003B07047C481FF1F20E9000080B582B000AF786020482149FFF796FC7B6893F80031002B2DD01C484D
:404600001D49FFF78DFC01F049FC0346002B0CBF00230123DBB2002B26D015481749FFF77FFC01F02FFC0346002B14BF00230123DBB2002B08D00E481149FFF771FC7B68CD
:40464000002283F800210FE009480E49FFF768FC7B68012283F8002106E005480A49FFF75FFC786800F012F80837BD4680BD00BFC481FF1F30E900004CE900006CE90000F4
:4046800090E90000B0E90000C0E9000080B584B000AF78601F482049FFF742FC7B68D3F80431FB6062B605E0012001F0CFF8FB68013BFB6001F0E6FB0346002B04D1FB68BF
:4046C000002B01DD012300E00023002BECD101F0D9FB0346002B0CBF00230123DBB2002B0BD00C480D49FFF71BFC7B68012283F8002101F007FD012308E006480849FFF7D5
:404700000FFC7B68002283F80021002318461037BD4680BDC481FF1FE0E90000FCE9000008EA000080B582B000AF786039607B68012B20D13A684FF6FF739A421BD10F48C3
:4047400040F6210100F0BEF90D48002100F0BAF90C484FF4784100F0B5F90B484FF4FC6100F0B0F909481F2100F0ACF908484FF6FF7100F0A7F90837BD4680BDA484FF1F27
:40478000A884FF1FAC84FF1FB084FF1FB484FF1FB884FF1F80B500AF01204FF6FF71FFF7C1FF80BD80B582B000AF78607B684FF47A7202FB03F3184600F004F80837BD4633
:4047C00080BD00BF80B582B000AF78607B689BB2184601F05DF80837BD4680BD80B483B000AF78607B68044A1A607B6818460C37BD465DF8047B704730EA000080B582B050
:4048000000AF78607B681846FFF7E8FF7B680C4A1A607B680C33184600F0A2FC01F094F8002001F02FF97A68064B1A607B6803F10C027B685A607B6818460837BD4680BD6D
:4048400020EA00000085FF1F80B483B000AF78600C37BD465DF8047B704700BF80B582B000AF786039607B683A689A60084B1B685B681B681B68064A1268526810469847AF
:404880003B681B681B68386898470837BD4680BD0085FF1F80B582B000AF786039607B68012B23D13A684FF6FF739A421ED1114840F6210100F006F90F48002100F002F9FD
:4048C0000E484FF4784100F0FDF80D484FF4FC6100F0F8F80B481F2100F0F4F80A484FF6FF7100F0EFF80948FFF788FF0837BD4680BD00BFBC84FF1FC084FF1FC484FF1F2D
:40490000C884FF1FCC84FF1FD084FF1FD484FF1F80B500AF01204FF6FF71FFF7BBFF80BD80B483B000AF78607B6800225A607B685A687B681A607B6818460C37BD465DF885
:40494000047B704780B485B000AFF860B9607A60FB68BA681A60FB687A685A60FB6818461437BD465DF8047B704700BF80B483B000AF786039603B681A687B681A603B689B
:404980005A687B685A607B6818460C37BD465DF8047B704780B483B000AF78607B681B6818460C37BD465DF8047B704780B483B000AF78607B685B6818460C37BD465DF876
:4049C000047B704780B483B000AF786039607B683A681A600C37BD465DF8047B704700BF80B483B000AF786039607B681A683B681A447B681A600C37BD465DF8047B704750
:404A000080B483B000AF786039607B685A683B681A447B685A600C37BD465DF8047B704780B483B000AF78607B6800225A607B685A687B681A607B6818460C37BD465DF850
:404A4000047B704780B485B000AFF860B9607A60FB68BA681A60FB687A685A60FB6818461437BD465DF8047B704700BF80B483B000AF786039603B681A687B681A603B689A
:404A80005A687B685A607B6818460C37BD465DF8047B704780B483B000AF78607B681B6818460C37BD465DF8047B704780B483B000AF78607B685B6818460C37BD465DF875
:404AC000047B704780B483B000AF786039603B689AB27B681A807B6818460C37BD465DF8047B704780B483B000AF786039603B681A887B681A807B6818460C37BD465DF856
:404B0000047B704780B483B000AF786039603B681A887B681A807B681B8818460C37BD465DF8047B704700BF80B483B000AF786039603B681A887B681B889A420CBF002366
:404B40000123DBB218460C37BD465DF8047B704780B582B000AF786039607B68012B20D13A684FF6FF739A421BD10F4840F62101FFF7A8FF0D480021FFF7A4FF0C484FF4BB
:404B80007841FFF79FFF0B484FF4FC61FFF79AFF09481F21FFF796FF08484FF6FF71FFF791FF0837BD4680BD0485FF1F0885FF1F0C85FF1F1085FF1F1485FF1F1885FF1FDA
:404BC00080B500AF01204FF6FF71FFF7C1FF80BD80B582B000AF786039607B68043318460B49FFF77FFF7B68063318460949FFF779FF7B683A681A607B6801221A727B6893
:404C000001225A727B6818460837BD4680BD00BF3085FF1F1C85FF1F90B585B000AF786039607B681C1D07F10C0318463968FFF759FF07F10C0320461946FFF763FF1437FB
:404C4000BD4690BD90B585B000AF786039607B689C1D07F10C0318463968FFF743FF07F10C0320461946FFF74DFF1437BD4690BD80B483B000AF78607B685B7A18460C3780
:404C8000BD465DF8047B704780B483B000AF78600B46FB707B68FA785A720C37BD465DF8047B7047B0B588B002AFF86079813A81FB80FB681B681B6804331C68FB681868ED
:404CC00079893A89FB883D8D0095A04700237B611DE0FB681B681B681C331C68FB681D6897F82C30002B02D0FB68063301E0FB68043307F1100210461946FFF7F3FE07F169
:404D0000100328461946A0477B6901337B61FB883A8D02FB03F27B699A42DADC1837BD46B0BD00BFB0B58AB002AFF86079813A81FB71FB681B681B6808331B68FA681268BC
:404D40001046984703467A899A4220D2FB681B681B680C331B68FA6812681046984703463A899A4213D27989FB685B7A1A4613465B0013445B000B44013B002B07DB3A8980
:404D8000FB685B7ADB001344013B002B01DA012300E00023002B00D0C1E00023FB77B9E097F91F30052B02D10023BB770BE0FA7913469B0013441A4697F91F301A44594B35
:404DC00013441B78BB77FB681B681B6804331C68FB6819687A8997F91F301A443B8908200090084611461A460123A04700237B7788E0BB7F03F00103002B39D0FB685B7AA9
:404E0000012B14D1FB681B681B681C331C68FB681D68FB68043307F1140210461946FFF761FE07F1140328461946A04764E097F91F309BB2FA68527A02FB03F39AB27B89E7
:404E4000134499B297F91D309BB2FA68527A02FB03F39AB23B8913449AB2FB685B7AF868407A009000200190F868FFF71BFF43E0FB689A1DFB68043310461946FFF754FEBB
:404E80000346002B38D0FB685B7A012B14D1FB681B681B681C331C68FB681D68FB68063307F1180210461946FFF71CFE07F1180328461946A0471FE097F91F309BB2FA6842
:404EC000527A02FB03F39AB27B89134499B297F91D309BB2FA68527A02FB03F39AB23B8913449AB2FB685B7AF868407A009001200190F868FFF7D6FEBB7F5B10BB777B7F74
:404F000001337B7797F91D30072B7FF772AFFB7F0133FB7797F91F30052B7FF741AF2037BD46B0BD38EA000080B582B000AF786039607B68012B20D13A684FF6FF739A426B
:404F40001BD10F4840F62101FFF7BCFD0D480021FFF7B8FD0C484FF47841FFF7B3FD0B484FF4FC61FFF7AEFD09481F21FFF7AAFD08484FF6FF71FFF7A5FD0837BD4680BDF2
:404F80001C85FF1F2085FF1F2485FF1F2885FF1F2C85FF1F3085FF1F80B500AF01204FF6FF71FFF7C1FF80BD80B582B000AF786039607B68012B20D13A684FF6FF739A42D2
:404FC0001BD10F4840F62101FFF77CFD0D480021FFF778FD0C484FF47841FFF773FD0B484FF4FC61FFF76EFD09481F21FFF76AFD08484FF6FF71FFF765FD0837BD4680BDF2
:405000003485FF1F3885FF1F3C85FF1F4085FF1F4485FF1F4885FF1F80B500AF01204FF6FF71FFF7C1FF80BD80B582B000AF78607B680A4A1A607B6804331846FFF770FC04
:405040007B680C331846FFF7EBFC7B6800225A617B6818460837BD4680BD00BF40EF000080B582B000AF786039607B68043318463968FFF77BFC0837BD4680BD80B582B072
:4050800000AF786039607B68012B27D13A684FF6FF739A4222D1134840F62101FFF712FD11480021FFF70EFD10484FF47841FFF709FD0F484FF4FC61FFF704FD0D481F219B
:4050C000FFF700FD0C484FF6FF71FFF7FBFC0B4B1B685B680A481946FFF77AFD0837BD4680BD00BF4C85FF1F5085FF1F5485FF1F5885FF1F5C85FF1F6085FF1F0085FF1F56
:405100006485FF1F80B500AF01204FF6FF71FFF7B5FF80BD80B483B000AF78607B68044A1A607B6818460C37BD465DF8047B7047B0EF000080B584B000AFF860B9607A601A
:40514000FB68064A1A60FB6804331846FFF7E2FFFB6818461037BD4680BD00BF80EF000080B582B000AF78607B681846B021DC22FFF7E0FF7B68084A1A607B6818331846AF
:40518000B021DC22FFF75EFC7B6800225A617B6818460837BD4680BD50EF000080B584B000AFF860B9607A603B60F8680221002200F00EFABB689BB2F86803211A4600F032
:4051C00007FAF8680421002200F002FA3B68002B08DDBB689AB23B689BB213449BB2013B9BB205E0BB689AB23B689BB213449BB2F86805211A4600F0EBF9F8680621002291
:4052000000F0E6F97B689BB2F86807211A4600F0DFF9F8680821002200F0DAF97B689AB2BB699BB213449BB2F86809211A4600F0CFF9F868222100F0AFF91037BD4680BDA9
:4052400080B582B000AF78607B6818331846FFF721FC03469BB218460837BD4680BD00BF80B582B000AF78607B6818331846FFF71DFC03469BB218460837BD4680BD00BFB4
:4052800090B587B002AFF860B9607A60FB681B6804331C68BB6801337A6801320092F868B9687A68A0471437BD4690BD80B483B000AF7860002318460C37BD465DF8047B69
:4052C000704700BF80B483B000AF7860002318460C37BD465DF8047B704700BF80B582B000AF786039603B681B887868194600F061F90837BD4680BD80B483B000AF786076
:40530000002318460C37BD465DF8047B704700BF90B585B000AF786000F016FB802000F0A1FB00F0FDFB78682621842200F050F92820FFF737FA78682621B82200F048F99F
:405340002820FFF72FFA78682621BC2200F040F91420FFF727FA78686021002200F038F978686121062200F033F978686221002200F02EF978686321C82200F029F91420D3
:40538000FFF710FA78687321702200F021F978684021002200F01CF978684121402200F017F978684221452200F012F978684321012200F00DF978684421602200F008F917
:4053C00078684521052200F003F9786846210C2200F0FEF878684721D12200F0F9F878684821052200F0F4F878685021752200F0EFF878685121012200F0EAF87868522138
:40540000672200F0E5F878685321142200F0E0F878685421F22200F0DBF878685521072200F0D6F878685621032200F0D1F878685721492200F0CCF81420FFF7B3F97868F9
:405440001F21032200F0C4F878682021002200F0BFF878682421242200F0BAF878682521342200F0B5F8786823212F2200F0B0F81420FFF797F978681821442200F0A8F835
:4054800078682121012200F0A3F878680121002200F09EF878681C21032200F099F878681921062200F094F81420FFF77BF978682621842200F08CF82820FFF773F9786888
:4054C0002621B82200F084F82820FFF76BF978682621BC2200F07CF81420FFF763F978680221002200F074F878680321002200F06FF878680421002200F06AF87868052111
:40550000AF2200F065F878680621002200F060F878680721002200F05BF878680821002200F056F878680921DB2200F051F81420FFF738F978681621082200F049F8786819
:405540001721052200F044F87868212100F024F87868222100F020F80023FB6011E07B681B681C331C6807F1080318460949FFF7B9FA07F1080378681946A047FB68013383
:40558000FB60FA6849F23F739A42E8DD1437BD4690BD00BF7085FF1F80B582B000AF78600B467B807B880020194600F0C9FA0837BD4680BD80B582B000AF78600B467B800B
:4055C0007B880120194600F0BBFA0837BD4680BD80B582B000AF786013460A467A803B807B8878681946FFF7D7FF3B8878681946FFF7E0FF0837BD4680BD00BF80B582B02E
:4056000000AF786039607B68012B20D13A684FF6FF739A421BD10F4840F62101FFF752FA0D480021FFF74EFA0C484FF47841FFF749FA0B484FF4FC61FFF744FA09481F2143
:40564000FFF740FA08484FF6FF71FFF73BFA0837BD4680BD7085FF1F7485FF1F7885FF1F7C85FF1F8085FF1F8485FF1F80B582B000AF786039607B685B687A6891687A68B3
:405680000C32084611463A6898470837BD4680BD80B500AF01204FF6FF71FFF7AFFF80BD80B400AFFEE700BF80B582B000AF78607B68DBB2184600F0BDF8FEE780B584B036
:4056C00000AF7860104B1A687B6813441A460F4BD31AB3F5805F09DC0B4B1B68FB600A4B1A687B681A44084B1A6007E008F006F803460C221A604FF0FF33FB60FB68184685
:405700001037BD4680BD00BF0C81FF1F7086FF1F80B586B000AF224B7B61224B3B61204B7B6135E03B691B68FB603B695B68BB603B699B683B6000237B600CE0FB681A6887
:40574000BB681A60BB680433BB60FB680433FB607B6804337B607A683B689A42EED13B69DB683B6000237B6008E0BB6800221A60BB680433BB607B6804337B607A683B68F7
:405780009A42F2D13B6910333B617B69013B7B617B69002BC6D108F015F8FEF739FBFEE701000000C402010080B582B000AF174B174A1A60174B174A126842F400721A6098
:4057C00000237B600FE07B68032B04D8124B7A6853F8223000E0114B114A796842F821307B6801337B607B682F2BECD90D4B1B78DAB20D4B1A700D4B094A1A6002F0DEF9B5
:405800000B4B00221A600837BD4680BD0CED00E00004FA0514ED00E0003D0000A15600000080FF1FBC7600400481FF1F08ED00E00081FF1F80B483B000AF0346FB7101BE55
:405840000C37BD465DF8047B704700BF80B582B000AF786008E00C4B1B68184602F0A8FA7B68A3F500437B607B68B3F5004FF2D8064B1B687A6802FB03F3184602F098FA2E
:405880000837BD4680BD00BF1881FF1F1081FF1F80B582B000AF0346FB80FB88044A127802FB03F3184602F083FA0837BD4680BD1481FF1F80B584B000AF03463960FB71B7
:4058C0000F4B1B68FB60FB791F2B02D90020FFF7B1FFFB7903F01F0310339B00FA6813441B68BB60FB7903F01F0310339B00FA6813443A681A60BB6818461037BD4680BD0F
:4059000008ED00E080B582B000AF02460B46FA71BB71BB79072B02D90020FFF78BFFFB791F2B02D90020FFF785FFFB7903F01F0303F1604303F56443BA795201D2B21A70E5
:405940000837BD4680BD00BF80B500AF054B1B78002B04D100F008F8024B01221A7000F043F880BD8885FF1F80B582B000AF1C4B1B78DBB223F03F03FB71194BFA7942F03E
:405980000902D2B21A70174B164A1278D2B242F00102D2B21A70FF2000F036F8FF2000F051F87F2000F05EF83F2000F06BF8002000F078F802F006FA0346BB71094B094A01
:4059C0001278D2B242F01002D2B21A70BB79184602F0FCF900F028F80837BD4680BD00BF766500409665004080B400AF054B054A1278D2B262F07F02D2B21A70BD465DF861
:405A0000047B70477665004080B483B000AF0346FB71044BFA791A700C37BD465DF8047B704700BF0665004080B500AF01E000F055F800F047F8034603F01003002BF6D151
:405A400080BD00BF80B483B000AF0346FB71044BFA791A700C37BD465DF8047B704700BF4665004080B483B000AF0346FB71044BFA791A700C37BD465DF8047B704700BFF1
:405A80002665004080B483B000AF0346FB71044BFA791A700C37BD465DF8047B704700BF3665004080B483B000AF0346FB71044BFA791A700C37BD465DF8047B704700BFF2
:405AC0008665004080B400AF034B1B78DBB21846BD465DF8047B70476665004080B400AF034B1B78DBB21846BD465DF8047B70475665004080B400AFBD465DF8047B70478A
:405B000080B400AF044B01221A70044B02221A70BD465DF8047B7047246500403465004080B500AF054B1B78002B04D1FFF7E8FF024B01221A70FFF7DDFF80BD8985FF1F80
:405B400080B483B000AF02460B46FA71BB8000BF084B1B78DBB203F00103002BF8D1064BFA791A70054BBA881A800C37BD465DF8047B704762640040446500405465004080
:405B800080B582B000AF02460B46FA71BB71094B1B78002B04D100F00FF8064B01221A70FA79BB791046194600F0CCF80837BD4680BD00BF8A85FF1F80B582B000AF02F040
:405BC00001F90346FB714F4B4E4A1278D2B242F00102D2B21A704C4B4B4A1278D2B242F00102D2B21A70494B01221A70484B02221A70484B474A1278D2B202F07F02D2B24B
:405C00001A700020FFF744FE434B434A1278D2B222F00602D2B21A70404B404A1278D2B222F02002D2B21A703B4B3B4A1278D2B242F00102D2B21A700120FFF729FE2820EA
:405C4000FFF726FE364B364A1278D2B202F07F02D2B21A70324B324A1278D2B222F04002D2B21A702C4B2C4A1278D2B242F00202D2B21A700220FFF70BFE274B264A127845
:405C8000D2B242F00402D2B21A70264B00221A70254B00221A70FB79184602F097F817202249FFF707FE17200721FFF72BFE15201F49FFF7FFFD15200721FFF723FE182038
:405CC0001C49FFF7F7FD18200721FFF71BFE05201949FFF7EFFD05200721FFF713FE06201649FFF7E7FD06200721FFF70BFE07201349FFF7DFFD07200721FFF703FE0837A3
:405D0000BD4680BDA5430040B54300409D60004009600040106000409443004012600040F851004084600040856000407D69000071690000416200006D680000C168000031
:405D40001569000080B582B000AF02460B46FA71BB71254B4FF400021A60234B4FF080721A60214B20221A601F4B40221A601E4B80221A601D4B00221A70BB79002B02D0DF
:405D8000012B04D007E01A4B02221A7007E0184B03221A7003E0164B03221A7000BF154BFA791A70144B00221A70144B00221A70134B00221A70134B00221A70124B002238
:405DC0001A70124B00221A70114B03221A70114B80221A70012001F0EBFF0F4B04221A700837BD4680BD00BF00E100E01A86FF1F096000401086FF1FFC85FF1FFD85FF1F1E
:405E0000FE85FF1FFF85FF1F0086FF1F1986FF1F28600040086000401260004080B400AF0F4B00221A700F4B00221A700E4B00221A700E4B00221A700D4B00221A700D4B47
:405E400000221A700C4B00221A700C4B03221A700B4B80221A70BD465DF8047B704700BF1A86FF1FFC85FF1FFD85FF1FFE85FF1FFF85FF1F0086FF1F1986FF1F2860004035
:405E80000860004080B400AF034B1B78DBB21846BD465DF8047B7047FC85FF1F80B483B000AF0023FB71094B1B78DBB2002B05D0064B1B78FB71054B00221A70FB79184627
:405EC0000C37BD465DF8047B704700BFFE85FF1F90B484B000AF396013460246FA71BB80FB79002B69D0FB79082B66D8FB79013BDBB21B017B737A7B324B1344BB60B98841
:405F0000FA79314813465B0013449B000344DB889BB2C3F5007399420BD9FA792A4913465B0013449B000B44DB889BB2C3F50073BB807A7B254B13441946BB881B0A9BB22D
:405F4000D8B2FA79204C13465B0013449B002344DB78DBB20343DBB20B707A7B1C4B1344BA88D2B21A703B68002B0FD00023FB8108E0FB893A6813441A78BB681A70FB8906
:405F80000133FB81FA89BB889A42F2D3FA790E4913465B0013449B000B4400225A707A7B0C4B13441946FA79074813465B0013449B0003445B79DBB20B701037BD4690BCFC
:405FC000704700BF886000409085FF1F0C6000400D6000400E60004080B485B000AF0346FB71FB79002B1ED0FB79082B1BD8FB79013BDBB21B01FB73FA790D4913465B0091
:4060000013449B000B4400225A70FA7B094B13441946FA79064813465B0013449B0003445B79DBB20B701437BD465DF8047B70479085FF1F0E60004080B582B000AF002337
:40604000FB71294B1B78DBB2DBB25BB2002B11DA264B1B78DBB2212B00D00AE0244B07221A80234B234A5A6000F066FA0346FB7100BF34E01C4B1B78DBB2DBB25BB2002BEE
:406080002DDB1A4B1B78DBB2202B02D0222B13D025E0174B07221A80154B164A5A60164B1B78DBB243F00103DAB2134B1A7000F0C3FA0346FB7112E0104B1B78DBB21A4607
:4060C0000F4B1A800C4B1B78DBB243F00203DAB2094B1A7000F050FB0346FB7100BFFB7918460837BD4680BD00600040016000401C86FF1F1C81FF1F8B85FF1F0260004007
:406100008C85FF1F80B500AF044B00221A70044B1B78DBB21846FFF75FFF80BD8B85FF1F8F85FF1F80B485B000AF78600023FB8102E0FB890133FB81FB897A6813441B789E
:40614000002BF6D1FB8918461437BD465DF8047B704700BF80B584B000AF78600023BB817868FFF7DFFF0346FB81334B1B78DBB21A46324913465B0013449B000B44083342
:406180001B889BB2FA899A420DD92B4B1B78DBB21A462A4913465B0013449B000B4408331B889BB200E0FB897B81234B1B78D9B2BB897A681A447B89084611461A46FFF7B2
:4061C00087FEFA897B89D31AFB81FB89002B0FD1194B1B78DBB21A46184913465B0013449B000B4408331B889BB27A899A421DD1BA897B891344BB8100BF0F4B1B78DBB256
:406200001A460E4913465B0013449B000B445B78DBB2002BF1D0FB89002B07D1064B1B78DBB2184600210022FFF752FEFB89002B9BD11037BD4680BD8E85FF1F9085FF1F81
:4062400080B582B000AF374B1B78BB71BB7903F01003002B63D00123FB71BB795BB2002B13DABB7903F00F03012B02D00023FB711DE000F061F82C4B1B78DBB2DBB25BB209
:40628000002B14DA0023FB7111E0BB7903F04003002B02D000F094F809E0BB7903F02003002B02D000F0B2F801E00023FB71FB79002B34D01B4B1B78BB71BB795BB2002BF4
:4062C0002DDB1A4B1B78DAB2194B1B78DBB21343BB71184BBA791A70164B1B78DBB2BA799A421CD1104B1B78FB710E4B1B78DBB223F07F03BB71BB79002B0AD1094B0A4AF9
:406300001278D2B21A70074B1B78DBB203F00F03FB71054B1B78DBB2FA799A42E2D10837BD4680BD286000402886FF1F1886FF1F2986FF1F2960004080B582B000AF1D4B8D
:406340001B78FB711B4BFA791A701A4B1B78FB71FB795BB2002B03DA174BFA791A7025E0022000F049FA154B1B78DBB203F06003202B08D0402B0BD0002B0ED100F004FBDD
:406380000346FB710CE001F027FD0346FB7107E001F0DEFA0346FB7102E00023FB7100BFFB79002B02D1044B03221A700837BD4680BD00BF286000402886FF1F00600040FB
:4063C00080B500AF104B1B78DBB2062B19D801A252F823F00364000003640000F163000003640000F763000003640000FD63000000F0FCF806E000F0AFF903E000F0D8F96C
:4064000000E000BF80BD00BF1A86FF1F80B500AF124B1B78DBB2062B1DD801A252F823F057640000576400003D6400005764000043640000576400004964000000F0DCF8D7
:406440000AE000F02DF907E0032000F0D5F9044B03221A7000E000BF80BD00BF1A86FF1F2886FF1F80B483B000AF0023FB712B4B1B78DBB21A462A4B1B889BB213449AB28E
:40648000274B1A8018E0FB7903F1804303F5C043244A52681278D2B21A70224B5B685A1C204B5A60FB790133FB711E4B1B889BB2013B9AB21B4B1A801A4B1B889BB2002BB2
:4064C00002D0FB79072BDED9144B1B78DBB2082B02D0FB79002B0FD0134B1B78DBB283F07F03DB43DAB2104B1A70104B0F221A700F4B02221A7005E00C4B02221A700C4B0A
:4065000002221A70054BFA791A700A4BFA791A700C37BD465DF8047B704700BF1986FF1F2A86FF1F1C86FF1F1886FF1F2886FF1F1A86FF1F2986FF1F80B582B000AF154BAA
:406540001B889BB2002B02D100F02EF81DE0124B02221A70114B00221A7000F06DF9104B1B78DBB21B029AB20E4B1B78DBB213439BB2FB80074B1B889BB2FA889A4202D2C2
:40658000044BFA881A80FFF76DFF012318460837BD4680BD1C86FF1F1A86FF1F1886FF1F076000400660004080B400AF0A4B02221A700A4B80221A70094B0F221A70094BBC
:4065C00000221A70084B00221A7001231846BD465DF8047B704700BF1A86FF1F1886FF1F2886FF1F1986FF1F2986FF1F80B500AFFFF738FF80BD00BF80B500AF0A4B1B7878
:40660000DBB21A46094B1B889BB213449AB2074B1A80074B00221A70012000F0EDF8054B03221A7080BD00BF1986FF1F2A86FF1F1A86FF1F2886FF1F80B582B000AF124B23
:4066400004221A70114B80221A7000F0F5F8104B1B78DBB21B029AB20E4B1B78DBB213439BB2FB800C4B1B889BB2FA889A4202D2094BFA881A80094B0B221A700123184614
:406680000837BD4680BD00BF1A86FF1F1886FF1F07600040066000401C86FF1F2886FF1F80B483B000AF0023BB71254B1B78DBB203F00F03DBB2023BFB71FB799AB2214BED
:4066C0001B889BB213449AB21E4B1A801BE01E4B5A68BB7903F1804303F5C0431B78DBB21370194B5B685A1C174B5A60BB790133BB71FB79013BFB71134B1B889BB2013B62
:406700009AB2114B1A80104B1B889BB2002B02D0FB79002BDBD10D4BFA791A700C4B1B78DBB283F07F03DB43DAB2094B1A70094B0B221A700C37BD465DF8047B704700BFA0
:40674000296000402A86FF1F1C86FF1F2986FF1F1886FF1F2886FF1F80B500AF044B00221A70012000F048F8024B03221A7080BD1A86FF1F2886FF1F80B400AF084B06221C
:406780001A70084B06221A70074B80221A70074B00221A7001231846BD465DF8047B70471A86FF1F2886FF1F1886FF1F2986FF1F80B500AF0C4B1B78DBB2002B0AD00B4BF5
:4067C000094A1278D2B262F07F02D2B21A70064B00221A70064B00221A70012000F00CF8044B03221A7080BDFF85FF1F086000401A86FF1F2886FF1F80B483B000AF0346DA
:40680000FB710B4B9B68002B0CD0094B9B68FA791A70074B9B68074A128892B25A80044B00229A600C37BD465DF8047B704700BF1C86FF1F2A86FF1F80B400AF094B0022F8
:406840001A80094B9B68002B07D0074B9B6800221A70054B9B6800225A80BD465DF8047B704700BF2A86FF1F1C86FF1F80B400AF104B1B78104B1B7BDBB203F00303012B86
:4068800008D00D4BDB7BDBB283F07F03DB43DAB2094BDA73084B01225A73084B074A1278D2B222F00102D2B21A70BD465DF8047B704700BF0E6000409085FF1F0B60004094
:4068C00080B400AF104B1B78104B1B7EDBB203F00303012B08D00D4BDB7EDBB283F07F03DB43DAB2094BDA76084B01225A76084B074A1278D2B222F00202D2B21A70BD46A9
:406900005DF8047B704700BF1E6000409085FF1F0B60004080B400AF124B1B78124B93F82430DBB203F00303012B0AD00E4B93F82730DBB283F07F03DB43DAB20A4B83F89F
:406940002720094B012283F82520084B074A1278D2B222F00402D2B21A70BD465DF8047B704700BF2E6000409085FF1F0B60004080B400AFBD465DF8047B704780B500AF73
:40698000FFF74CFA80BD00BF80B586B000AF0023FB7500233B619D4B00221A809C4B1B78DBB2DBB25BB2002B80F20581994B1B78DBB20A2B00F2FD8001A252F823F000BF64
:4069C000076B0000B36B0000B36B0000B36B0000B36B0000B36B0000ED690000B36B00007D6B0000B36B0000936B00008A4B1B78DBB2012B0ED100F025FEB860BB685A6807
:406A0000824B5A60814B12221A80FFF795FD0346FB7577E0804B1B78DBB2022B23D17F4B1B78DBB2184600F0E3FDB860BB68002B68D0BB685A68754B5A60744B5B680333C4
:406A40001B78DBB21B029AB2704B5B6802331B78DBB213439BB29AB26C4B1A80FFF76CFD0346FB75A6E06C4B1B78DBB2032B44D10023FB736A4B3B6109E03B691B78FB7154
:406A8000FB793A6913443B61FB7B0133FB73634B1B78DBB2FA7B9A4204D23B691B78DBB2002BEAD15D4B1B78DBB2EE2B01D15D4B3B615A4B1B78DBB2002B0BD0574B1B781E
:406AC000DAB2594B1B7C9A4204D1584800F0ACF9564B3B613B691B78DBB2002B12D03B691B78DBB21A46494B1A80484B3A695A60FFF722FD0346FB755CE001F06DF90346EF
:406B0000FB7557E056E0424B1B78DBB203F00303002B1FD0022B00D02FE03C4B02221A80434B1B78DBB203F07F02424913465B0013449B000B449B78DAB23F4B1A703E4B89
:406B400000225A70314B3C4A5A60FFF7F5FC0346FB7512E02D4B02221A80384B1B78DAB2354B1A70344B00225A70284B324A5A60FFF7E2FC0346FB7500BF1BE0234B01220D
:406B80001A80224B2E4A5A60FFF7D6FC0346FB7510E01E4B01221A80254B1B78DBB21A46284B1A44194B5A60FFF7C6FC0346FB7500E000BF1FE1174B1B78DBB2013B0A2B23
:406BC00000F2188101A252F823F000BFDD6C0000F56D0000696D0000F56D0000F96B0000F56D0000F56D0000F56D00004D6C0000F56D0000A36C0000084B1B78DAB2124BE5
:406C00001A70FFF7B9FD0346FB75F4E01C86FF1F0060004001600040036000400260004064F00000C0F100000CF000003086FF1F046000409085FF1F2C86FF1F0086FF1F2B
:406C4000FC85FF1F0486FF1FFF85FF1F6C4B1B78BB71BB79002B06D0BB79013BDBB2184600F0C6FCB860BB79002B02D0BB68002B02D1BB79002B13D1624B1B78DBB2BA79C6
:406C80009A4208D05F4BBA791A705F4B01221A70012000F0D1F9FFF76FFD0346FB75AAE0A9E000F019FE0346002B16D0574B1B787B71574B7A791A70534B01221A7000F07D
:406CC0005DFB7B797A7953498A5CD1B2524AD154FFF752FD0346FB758DE08CE04F4B1B78DBB203F00303012B22D0012B0DD3022B00D038E0424B1B78DBB2002B04D100F029
:406D000049FD0346FB752EE02DE03D4B1B78DBB2012B0CD1424B1B78DBB223F00203DAB23F4B1A70FFF728FD0346FB751BE01AE0364B1B78DBB2012B14D8344B1B78DBB202
:406D40001A463849CB5CD9B22D4B1B78DBB2DB43DBB20B40D9B2334B9954FFF70DFD0346FB75FFE700BF46E02C4B1B78DBB203F00303012B22D0012B0DD3022B00D038E0A9
:406D80001F4B1B78DBB2002B04D100F093FC0346FB752EE02DE01A4B1B78DBB2012B0CD11F4B1B78DBB243F00203DAB21C4B1A70FFF7E2FC0346FB751BE01AE0134B1B78B6
:406DC000DBB2012B14D8114B1B78DBB21A461549CB5CD9B20A4B1B78DBB2DB43DBB20B40D9B2104B9954FFF7C7FC0346FB75FFE700BF00E000BFFB7D18461837BD4680BDA9
:406E000002600040FC85FF1FFE85FF1F04600040FD85FF1F0486FF1F0886FF1F006000400086FF1F0C86FF1F90B488B000AF78600023BB771F4B07F10C040FCB84E80F00C5
:406E40007B68002B32D07B6822221A707B68013303221A700223FB7725E0BB7F03F1924303F580731B787B77BB7F0133BB77FB7F7A6813447A7F1209D2B207F120010A442A
:406E800012F8142C1A70FB7F02337A6813447A7F02F00F0207F120010A4412F8142C1A70FB7F0433FB77FB7F212BD6D92037BD4690BC7047B8EF000080B483B000AF012309
:406EC000FB710023BB7197E0BB7903F1804303F5C1430C221A70FA794E4913465B0013449B000B445B79DBB2002B18D0FA79494913465B0013449B000B441B79DBB2DBB2A6
:406F00005BB2002B05DABA79434B13440C221A700AE0BA79404B134408221A7004E0BA793D4B134480221A70BA793C4B13441946FA79384813465B0013449B00034408330A
:406F40001B889BB21B0A9BB2DBB20B70BA79344B13441946FA792F4813465B0013449B00034408331B889BB2DBB20B70BA792D4B13441946FA79274813465B0013449B004C
:406F80000344DB889BB2DBB20B70BA79264B13441946FA791F4813465B0013449B000344DB889BB21B0A9BB2DBB20B70BA791F4B13441946FA79174813465B0013449B00BC
:406FC0000344DB889BB2DBB20B70BA79184B13441946FA790F4813465B0013449B000344DB889BB21B0A9BB2DBB20B70FB790133FB71BB791033BB71BB795BB2002BBFF68D
:4070000063AF0C4BFF221A700C37BD465DF8047B704700BF9085FF1F0E6000400C6000400D600040866000408760004084600040856000400A60004080B588B000AF0346CD
:40704000FB7100237B830023FB7743E0FA7FA14913465B0013449B000B4400221A70FA7F9C4913465B0013449B000B4400229A70FA7F984913465B0013449B000B440022D7
:407080005A70FA7F934913465B0013449B000B440022DA70FA7F8F4913465B0013449B000B4400225A71FA7F8A4913465B0013449B000B44083300221A80FA7F8549134645
:4070C0005B0013449B000B44083300229A70FB7F0133FB77FB7F082BB8D9FB79002B10D000237B770AE07B7F7B4A0021D1547B7F7A4A0021D1547B7F01337B777B7F012B62
:40710000F1D9774B1B78DBB2002B00F03081744B1B78DBB2013BDBB2184600F069FA38613B695B68FB60FB6807331B7803F04003002B08D06B4B1B78DBB243F00103DAB221
:40714000684B1A7007E0674B1B78DBB223F00103DAB2644B1A703B6908333B613B691B78FB7701237B77AAE03B695B687B610023BB779CE07A7F7B699B7803F07F039A4224
:4071800040F08F807A7F534913465B0013449B000B4408331B889AB27B699B889A420BD27A7F7B6999884B4813465B0013449B00034408330A461A807B691B78464AD35C43
:4071C000DAB27B695B789A426BD17B69DB7803F00303FB727B699B78DBB25BB2002B25DA7A7F3C4913465B0013449B000B4401225A70797FFB7A012B01D1072200E00D22D9
:4072000034480B465B000B449B0003445A717B699B790A2B03D07B699B79022B2BD1FB7A032B28D0304B7A7F1A7024E07A7F294913465B0013449B000B4400225A70797F28
